S022000041546D6567615F61646166727569744C49425F6E5246383030312E737265631F
S11300000C94AD010C9477060C94D5010C94D50195
S11300100C94D5010C94D5010C94D5010C94D50104
S11300200C94D5010C94D5010C94D5010C94D501F4
S11300300C94D5010C94D5010C94D5010C94D501E4
S11300400C94D5010C94D5010C94D5010C94D501D4
S11300500C94D5010C94D5010C94D5010C94D501C4
S11300600C94D5010C94D5014602D702D70265023F
S113007077029102D7028402D702C402D7023B025C
S1130080CC020007060000030241FE00000000004D
S1130090000000000000000000000000000000005C
S11300A0000000001F061000000000000000030014
S11300B003010100000700009000000000000000A0
S11300C000000000001F06101C01020000000000D8
S11300D00000000000000000000000001400000008
S11300E014039001FF001F061038FFFF025800059B
S11300F000000000000000000000000000000000FC
S1130100000000000000000506105400000000007C
S113011000000000000000000000000000000000DB
S113012000000000000000001F062000040402027A
S11301300001280001001804040505000228030139
S1130140020300002A040414001F06201C060003F6
S11301502A00015374656C6C6173656D692E636F5D
S11301606D0000000000000404001F06203805058F
S11301700004280301020500012A06040302000505
S11301802A010100000404050500001F062054068E
S1130190280301020700042A0604090800072A04A8
S11301A00130063006000058020404001F062070C7
S11301B002020008280001011804040202000928B0
S11301C000010A1804040505000A2803001F06207C
S11301D08C01020B00272A04040901000B2A2701C1
S11301E00A000000000000000004041010001F06B4
S11301F020A8000C2800019ECADC240EE5A9E09387
S1130200F3A3B50100406E04041313000D28001F6E
S11302100620C40301040E009ECADC240EE5A9E0F6
S113022093F3A3B50200406E44101400000E0000C6
S11302301F0620E002020000000000000000000091
S11302400000000000000000000004041313000F6D
S1130250001F0620FC2803011010009ECADC240E97
S1130260E5A9E093F3A3B50300406E140014000065
S113027010001F0621180003020000000000000007
S1130280000000000000000000000000004614030D
S11302900200000A062134112902010000000000B6
S11302A0000000000000000000000000000000004A
S11302B0000000001F0640002A2701008004000BF4
S11302C00000000202000804000E00000003020007
S11302D002040010000506401C001100000000008C
S11302E0000000000000000000000000000000000A
S11302F0000000000000130650009ECADC240EE536
S1130300A9E093F3A3B50000406E000000000000D4
S1130310000000000000000C066000000000000067
S113032000000000000000000000000000000000C9
S113033000000000000000000606F00003896100D0
S113034000000000000000000000000000000000A9
S113035000000000000000006A0311241FBECFEF5C
S1130360D8E0DEBFCDBF11E0A0E0B1E0E4E4F0E10D
S113037002C005900D92AA30B107D9F724E0AAE093
S1130380B1E001C01D92A137B207E1F713E0CAE55D
S1130390D3E004C02297FE010E940A08C835D107A1
S11303A0C9F70E9450030C9420080C94000050E0FC
S11303B01416150624F580E090E020911001309188
S11303C011012F5F3F4F2F733327E0910E01F091FE
S11303D00F012E173F0779F0E0911001F091110100
S11303E0DB01A80FB91FAC91EE5EFE4FA0833093E2
S11303F0110120931001019684179507F4F20895D2
S1130400FC0181E0848360930C0140930B012093F1
S11304100D01138212821182108210920F01109228
S11304200E01109211011092100186E8818708953F
S1130430FC01718360830895FC01738362830895D2
S11304401F93CF93DF93EC0168E671E08AE891E0B3
S11304500E94C707882309F4AAC040916A0150E0AA
S1130460FA01E158F109ED30F10508F0A0C0EC5CA7
S1130470FF4F0C94080810916901212F30E022509D
S11304803109121613060CF461C06CC080916D0121
S11304908093910180916B01823019F0833031F0A7
S11304A086C08AE891E00E94380481C06F81788513
S11304B08D819E810E945B0781E88987E881F981AB
S11304C0309709F474C0099572C080916C01811150
S11304D0FFCF80916B01893009F069C029E04DE6B6
S11304E051E061E08AE891E00E94190760C08091C0
S11304F09101809393010E94100785E88987E88120
S1130500F981309709F0099563E08AE891E00E9447
S1130510B506882309F44BC080916701811147C057
S113052041C086E88987E881F981309709F0099507
S11305306F8178858D819E810E945B0781E8898720
S1130540E881F981309799F1099531C0ACE6B1E0C1
S1130550E3E5F1E080E090E04D914193019682174C
S11305609307D4F3125010935201412F63E571E0C5
S1130570CE010E94D701EA81FB813097C1F0612F3F
S113058083E591E0099513C0E3E9F1E090916B01F3
S11305908081890F80830BC0E3E9F1E080818F5F64
S11305A0808305C00E94BE0781E080936701DF91CC
S11305B0CF911F910895FF920F931F93CF93DF93D1
S11305C0EC018B01F42E84E1841720F40F2EF4E166
S11305D0FF2EF02DFF2021F090E09F5F9F11FDCFB3
S11305E063E08AE891E00E94B506882399F04F2DD4
S11305F0B80183E00E947707E3E9F1E0808181504C
S113060080838FE19EE40197F1F700C000008F2DF5
S113061090E005C0CE010E94200280E090E0DF91CE
S1130620CF911F910F91FF900895FC01768365830C
S11306305087478380E091E090938B0180938A01F7
S113064083E080938C0182E890E090938E01809304
S11306508D0186E180938F018AE891E00E94C706AC
S113066081E008950895462FE62FF0E01E161F0638
S11306708CF4A0E0B0E070E050E009C02F5F3F4F81
S11306802E173F07DCF31196AE17BF071CF4272F74
S1130690352FF4CFBC018BEA91E00E94DB02089570
S11306A0789463E373E08BEA91E00E941C0262E3B6
S11306B073E08BEA91E00E94180240E550E060E0AC
S11306C070E08BEA91E00E9415038BEA91E00E94AE
S11306D02002FBCF24E042E061E08BEA91E00E943B
S11306E0000208952A9A229A8CB580618CBD8CB53B
S11306F080648CBD2D9A2B9A08958CB58F7B8CBD0C
S11307000895811104C08CB580628CBD08958CB5A8
S11307108F7D8CBD08959CB5937F892B8CBD0895E6
S11307209CB5282F23709C7F922B9CBD2DB582FBFA
S1130730992790F9822F8E7F892B8DBD089521E012
S1130740FC01208329E02183089522E0240FDC01A9
S11307502C932DE011962C931197E62FF72F2191CE
S113076012962C9350E0BF0103960E941708089537
S1130770FC01DB0185E080838FE0818311968C91FD
S1130780119783838C91828313968C91139785831D
S113079012968C918483089522E0240FDC012C931B
S11307A025E111962C931197E62FF72F219112969C
S11307B02C9350E0BF0103960E941708089521E08E
S11307C0FC01208323E121830895CF92DF92EF92ED
S11307D0FF920F931F93CF93DF938C01F62E662322
S11307E0F1F081E2489FE0011124D12CF8016381EA
S11307F074816C0F7D1FFB013196449150E04E5F74
S11308005F4F88EB91E00E940E0888EB91E00E9414
S1130810B205882309F1D394A196DF10E7CFE12C28
S1130820CBEDD1E00F2EFDEDCF2EF1E0DF2EF02D3C
S113083069ED71E0C8010E94C7078823C9F3E394F6
S11308408881843859F4F60180819FEF980F9230A3
S113085030F4FE10EDCF03C081E801C081E8DF91E0
S1130860CF911F910F91FF90EF90DF90CF9008955B
S11308700F931F93CF93DF93EC016D81693028F0C0
S1130880683038F410E088E814C040E00E94E503C2
S113089019C000E010E0402F68E0CE010E94E5039B
S11308A01F5F6D81085F962F9695969596951917FB
S11308B090F3677039F0412F440F440F440FCE0179
S11308C00E94E503DF91CF911F910F91089510923B
S11308D00F04FC01E85FFE4F108231961082E7E0BE
S11308E0F3E08FE094E0DF0111971C921082B1963F
S11308F0E817F907C1F70895F894FC01E75FFE4F84
S1130900208130E02F5F3F4F27703078319781E0AE
S11309109081921380E0789408950F931F93CF935E
S1130920DF93EC01FC01E75FFE4F208130E0890199
S11309300F5F1F4F07701078FB014181FC01E85FD6
S1130940FE4F80818017C9F051E2529FC001539F2E
S1130950900D1124FE01E80FF91F1082019650E05A
S11309604F5F5F4F6F5F7F4F8C0F9D1F0E94170873
S1130970C75FDE4F088381E001C080E0DF91CF9143
S11309801F910F91089520910B01332727FD309576
S113099041E02230310509F440E04195233031052E
S11309A019F04F3F11F41BC041E0882361F05DB39F
S11309B021E030E0C90102C0880F991F4A95E2F78F
S11309C0852B8DBB08952DB381E090E002C0880F84
S11309D0991F4A95E2F7809582238DBB0895FFCF36
S11309E0CF93DF93EC018BEF91E00E947C04E091C4
S11309F0030390910403E91729F191E2E99FF001BF
S1130A001124E550FE4F91E2DE0101900D929A957A
S1130A10E1F7E3E0F3E0208130E02F5F3F4F277000
S1130A203078208390910F04992329F0298190E054
S1130A309F5F2917E8F7882339F081E00E94C304F7
S1130A4081E003C080E001C081E0DF91CF9108958F
S1130A50109211040E94720380E00E94810385E0D9
S1130A600E94900380E00E948B0385E093E00E9443
S1130A7067048BEF91E00E9467044AB181E090E043
S1130A809C0100900D0102C0220F331F0A94E2F76B
S1130A90242B2AB94BB19C0100900B0102C0220FF8
S1130AA0331F0A94E2F7242B2BB944B19C01009024
S1130AB00C0102C0220F331F0A94E2F7242B24B93D
S1130AC02BB100900D0102C0880F991F0A94E2F720
S1130AD0822B8BB92FEF80E792E021508040904029
S1130AE0E1F700C000004BB181E090E09C01009070
S1130AF00D0102C0220F331F0A94E2F7209524232C
S1130B002BB94BB19C0100900D0102C0220F331F81
S1130B100A94E2F7242B2BB92D982B9825B1009039
S1130B200C0102C0880F991F0A94E2F7822B85B941
S1130B302D9880910B01992787FD909521E08230B3
S1130B40910509F420E02195039709F421E020930D
S1130B500A018FE59AEE0197F1F700C0000078943E
S1130B60E89A0895CF93DF93EC0189818032E8F409
S1130B70BE0185E093E00E948D0490910F049923B7
S1130B8029F0298190E09F5F2917E8F795B141E0AA
S1130B9050E09A0100900C0102C0220F331F0A9406
S1130BA0E2F72095292325B901C080E0DF91CF9198
S1130BB00895CF93DF93CDB7DEB7A1970FB6F8941E
S1130BC0DEBF0FBECDBF0E94720325B181E090E06D
S1130BD000900C0102C0880F991F0A94E2F78095D7
S1130BE0822385B9E0910D0480910E04E81709F47D
S1130BF071C08E2F90E021E2E29FF0011124EB5F9F
S1130C00FC4F21E2DE01119601900D922A95E1F745
S1130C1001968770907880930D048A818EBD0DB4FF
S1130C2007FEFDCF8EB5809310048B818EBD0DB46D
S1130C3007FEFDCF2EB5209311048A81882341F04D
S1130C4090E030E00197821793070CF4C901282F34
S1130C50822F203208F08FE18823B1F0FE01349610
S1130C60A2E1B4E0815025E030E02C0F3D1F280FB5
S1130C70311DC90121912EBD0DB407FEFDCF2EB546
S1130C802D93E817F907B1F725B181E090E00090C2
S1130C900C0102C0880F991F0A94E2F7822B85B9D0
S1130CA00E947D0383B7816083BFE89A90910D040D
S1130CB080910E04981781F025B181E090E00090B6
S1130CC00C0102C0880F991F0A94E2F780958223D1
S1130CD085B902C01A82A1CF80E194E0A1960FB633
S1130CE0F894DEBF0FBECDBFDF91CF9108951F9260
S1130CF00F920FB60F9211242F933F934F935F934C
S1130D006F937F938F939F93AF93BF93EF93FF93CF
S1130D1083B78E7F83BFF8940E94D905FC0121819B
S1130D20222389F0BC018BEF91E00E948D04811194
S1130D3001C0FFCF8BEF91E00E947C04882319F05F
S1130D4080E00E94C3047894FF91EF91BF91AF912A
S1130D509F918F917F916F915F914F913F912F91CF
S1130D600F900FBE0F901F901895262F269526954D
S1130D702695FC01E20FF11D208930E06770C9015E
S1130D8002C0959587956A95E2F781700895CF938F
S1130D90DF93DC015896E2E3F4E02AE334E0ED016A
S1130DA0289718821D921192E217F307C1F7109247
S1130DB03F0410923E0410923D0410923C042FEF25
S1130DC0209347042093460420934504109243043F
S1130DD010924204109241041092400410923B0479
S1130DE010923A041092310410924904109248046B
S1130DF0FC01208131813093700420936F0422819F
S1130E0020936E042381348130936D0420936C0409
S1130E10858180936B040E942805DF91CF9108950A
S1130E208BE494E00E949F038AE494E00E94B2055C
S1130E3008951F93CF93DF93CDB7DEB765970FB6B1
S1130E40F894DEBF0FBECDBFDA01122F862F90E0DB
S1130E50FC01EE0FFF1F8E0F9F1FE0916F04F091B6
S1130E607004E80FF91F339780818130B9F425317C
S1130E70B8F46983422F50E0BD01CE0102960E946E
S1130E801708412FBE016F5F7F4F8BE494E00E94EF
S1130E90A5038AE494E00E94B20503C080E001C087
S1130EA080E065960FB6F894DEBF0FBECDBFDF912C
S1130EB0CF911F910895CF93DF9300D000D0CDB789
S1130EC0DEB79A8389837C836B83BE016F5F7F4F18
S1130ED08BE494E00E94B8038AE494E00E94B20593
S1130EE00F900F900F900F90DF91CF9108951F9363
S1130EF0CF93DF93CDB7DEB765970FB6F894DEBF17
S1130F000FBECDBF142F282F30E0F901EE0FFF1FC5
S1130F102E0F3F1FE0916F04F0917004E20FF31F56
S1130F203397218132812230310519F02430310583
S1130F30C1F41531C0F48983412F50E0CE010296EB
S1130F400E941708412FBE016F5F7F4F8BE494E02E
S1130F500E94CC03109244048AE494E00E94B205F7
S1130F6003C080E001C080E065960FB6F894DEBF50
S1130F700FBECDBFDF91CF911F9108958BE494E014
S1130F800E94DF038AE494E00E94B20508950F935F
S1130F901F93CF93DF938C01EB01CB010E94F004EC
S1130FA09A81983829F0993809F1963861F510C07A
S1130FB0DE011B96F801789698E0ED0128972881C8
S1130FC0EF01289728832D9121939150B1F71BC0ED
S1130FD0F801789698E0DF0118971C9211929150CD
S1130FE0D1F7F80110A2978191870DC02B813C8124
S1130FF0F801338722872D813E81358724872F810D
S1131000388537872687DF91CF911F910F910895F7
S1131010EE0FFF1F0590F491E02D0994FB01DC0114
S113102002C005900D9241505040D8F70895FB013D
S1131030DC0102C001900D9241505040D8F7089550
S1071040F894FFCF4E
S10D10440180000108000102000011
S9030000FC
